:100000001c9c05a504841dbda0a460a5000000bd26
:10001000a1a2a3a4a5a6a7a8a9aaabacadaeafb850
:10002000b9bf1a5aba00bb00bb06c4c68600a5a158
:10003000a2a3a4a5a6a7a8a9aaabacadaeafb8b918
:10004000bfbabb60bb60bd1b409b02e08405a5a698
:1000500006a606a606a6e0061a5a400090919293bc
:10006000949596979e9c9d9fe00290919293949573
:1000700096979e9c9d9fe0a2850000e0c400e00052
:100080008080058807e7c7a8a50009034302c2428c
:1000900082a16082e0000700008000e06240e8e0aa
:1000a00000c06900e063834062e0a6bdbfb4b3b2a4
:1000b000b1b000101413120000a50064000000404d
:1000c0000044a4100031004000040004914000bf2f
:1000d000b4b3b2b1b0e0bd02424200424002036399
:1000e000620042400244e000bdb080bfb102004067
:1000f00011005100000404001002004000bfb1b024
:1001000000e0bdbdbfb1b08010114482400000844a
:100110008400100111bfb1b0e0bdbdbf0004bf003d
:10012000e0bd024242e042bdbf0000400242bf00cb
:10013000e0bd00000000000068696120626f006996
:1001400000000000000000000000000000000000af
:00000001ff
