:100000001c9c05a504841dbda0a460a5000000bd26
:10001000a1a2a3a4a5a6a7a8a9aaabacadaeafb850
:10002000b9bf1a5aba00bb00bb06c4c68600a5a158
:10003000a2a3a4a5a6a7a8a9aaabacadaeafb8b918
:10004000bfbabb60bb60bd1b409b02e08405a5a698
:1000500006a606a606a6e0061a5a400090919293bc
:10006000949596979e9c9d9fe00290919293949573
:1000700096979e9c9d9fe0a2850000e0c400e00052
:100080008080058807e7c7a8a50009034302c2428c
:1000900082a16082e00006008240e000a4c7c06048
:1000a00084824000a3e000bdbfb4b3b2b1b0001081
:1000b0001413120000a50064000000400044a410c6
:1000c0000031004000040004914000bfb4b3b2b15d
:1000d000b0e0bd024242004240020363620042407f
:1000e0000244e000bdb080bfb102004011005100e9
:1000f000000404001002004000bfb1b000e0bdbd2c
:10010000bfb1b0801011448240000084840010010f
:1001100011bfb1b0e0bd02424300838002424302fe
:1001200043e0000242420363e043bdbf00004002df
:100130004242bf00e0bd0242e044bdbf00040004f3
:10014000bf00e0bd00000000000068696120626f30
:100150000069000000000000000000000000000036
:00000001ff
