:100000001c9c05a504841dbda0a460a5000000bd26
:10001000a1a2a3a4a5a6a7a8a9aaabacadaeafb850
:10002000b9bf1a5aba00bb00bb06c4c68600a5a158
:10003000a2a3a4a5a6a7a8a9aaabacadaeafb8b918
:10004000bfbabb60bb60bd1b409b02e08405a5a698
:1000500006a606a606a6e0061a5a400090919293bc
:10006000949596979e9c9d9fe00290919293949573
:1000700096979e9c9d9fe0a2850000e0c400e00052
:100080008080058807e7c7a8a50009034302c2428c
:1000900082a16082e000bdbfbeb7b6b5b4b3b2b155
:1000a00000b01e001112149417161315509100e49d
:1000b0000020004000c450001300a40000310040a4
:1000c00000040004d14002105000bfbeb7b6b5b462
:1000d000b3b2b1b0e0bd02424200424002036362eb
:1000e0000042400244e000bdb080bfb102004011b8
:1000f000005100000404001002004000bfb1b00035
:10010000e0bdbdbfb1b080101144824000008484c6
:1001100000100111bfb1b0e0bd0242430083800274
:1001200042430243030243e0000242420363e043ce
:10013000bdbf000040024242bf00e0bd0242e044b9
:10014000bdbf00040004bf00e0bd000000000000cf
:1001500068696120626f0069000000000000000013
:00000001ff
